:020000040800F2
:10000000000400201D8100081F8100081F810008D6
:100010001F8100081F8100081F8100081F81000840
:100020001F8100081F8100081F8100087DC500088E
:100030001F8100081F8100081F8100081F81000820
:100040001F8100081F8100081F8100081F81000810
:100050001F8100081F8100081F8100081F81000800
:100060001F8100081F8100081F810008ADC900081A
:10007000D5C9000801CA00082DCA000859CA0008DD
:1000800081CA0008ADCA00081F8100081F8100084E
:100090001F8100081F8100081F8100081F810008C0
:1000A0001F8100081F8100081F8100081F810008B0
:1000B000D1C800081F8100081F810008B9DE0008B0
:1000C000CDDF00081F8100081F8100081F81000884
:1000D0001F8100081F8100081F8100081F81000880
:1000E0001F8100081F8100081F8100081F81000870
:1000F0001F8100081F8100081F810008D9CA00085D
:100100001F8100081F8100081F8100081F8100084F
:100110001F8100081F8100081F8100081F8100083F
:1001200005CB00082DCB000859CB000885CB000873
:10013000B1CB00081F8100081F8100081F81000843
:100140001F8100081F8100081F81000895E000083A
:10015000D9CB000805CC000831CC00081F8100086D
:100160001F8100081F8100081F8100081F810008EF
:100170001F8100081F8100081F8100081F810008DF
:100180001F8100081F8100081F8100081F810008CF
:100190001F8100081F8100081F8100081F810008BF
:1001A0001F8100081F8100081F8100081F810008AF
:1001B0001F8100081F8100081F8100081F8100089F
:1001C0001F8100081F8100081F8100081F8100088F
:1001D0001F8100081F8100081F8100081F8100087F
:1080000072B6374880F30888364880F309883648C6
:108010003649086040F20000CCF200004EF63471A0
:10802000CEF200010860BFF34F8FBFF36F8F40F2B5
:108030000000C0F2F0004EF68851CEF20001086058
:10804000BFF34F8FBFF36F8F4FF00000E1EE100AC8
:108050004EF63C71CEF200010860022080F31488D5
:10806000BFF36F8F02F0F8FC02F0F8FC4FF05530D0
:108070001F491B4A91423CBF41F8040BFAE71D49D6
:10808000184A91423CBF41F8040BFAE71A491B4ACF
:108090001B4B9A423EBF51F8040B42F8040BF8E721
:1080A00000201849184A91423CBF41F8040BFAE7F6
:1080B00002F0CEFD02F0CAFD144C154DAC4203DABD
:1080C00054F8041B8847F9E704F0F8FE114C124DF0
:1080D000AC4203DA54F8041B8847F9E702F0B7BD55
:1080E00000040020000C00200000000808ED00E063
:1080F0000000002000040020B0F20008000C002066
:108100005C0F0020600F0020841C0020008000080D
:1081100000800008008000080080000870E700F080
:1081200000F8FEE72DE9F04F2DED108AC1F80CD0D4
:10813000C3689D46BDEC108ABDE8F08F002383F331
:1081400011882846A047002003F0B4F9FEE702F0AA
:10815000A5FD00DFFEE7000053B94AB9002908BFBA
:1081600000281CBF4FF0FF314FF0FF3000F062B924
:10817000ADF1080C6DE904CE00F006F8DDF804E07E
:10818000DDE9022304B070472DE9F047089F15464A
:1081900004468C461E46002B40F0CB808A4248D9CC
:1081A000B2FA82F149B1C1F120030CFA01FC20FAC4
:1081B00003F38D4043EA0C0C8C404FEA154EA8B2F5
:1081C000BCFBFEF8230C0EFB18CC08FB00F943EABD
:1081D0000C43994529D9EB1808F1FF3204D299458F
:1081E00002D9A8F102022B44A3EB0903A4B2B3FB0A
:1081F000FEFC0EFB1C330CFB00F044EA0344A042DF
:1082000015D92C190CF1FF3304D2A04202D9ACF1DC
:1082100002032C44241A43EA02401FB1CC4000233D
:108220003C607B603146BDE8F0874246DCE7634650
:10823000F0E7002A73D0B2FA82F3DBB31E46C6F130
:10824000200302FA06F521FA03F2B14020FA03F303
:108250000B434FEA154E00FA06F4B2FBFEF1A8B24A
:108260000EFB112C1A0C01FB00F842EA0C4290455F
:1082700057D9AA1801F1FF3C04D2904502D9A1F1C7
:10828000020C2A44A2EB08029BB2B2FBFEF10EFBE9
:108290001122484343EA0243984244D9EB1801F1C2
:1082A000FF3203D2984201D98A1E2B441B1A42EA9C
:1082B0000C4201E08B1A01224FEA154EA8B2B3FB23
:1082C000FEFC210C0EFB1C330CFB00F841EA0343BF
:1082D00098452AD9EB180CF1FF3104D2984502D900
:1082E000ACF102012B44A3EB0803A4B2B3FBFEFCE8
:1082F0000EFB1C330CFB00F044EA0344A04216D9E9
:108300002C190CF1FF3304D2A04202D9ACF10203C4
:108310002C44241A43EA0140314616467DE71F26C5
:108320008DE78C46AEE70A46C0E76146DBE7634669
:10833000EFE78B4206D917B90026304672E7C7E946
:108340000001F9E7B3FA83F686B98B4201D3824282
:1083500007D8841A61EB030301209C461FB900264D
:1083600060E73046FAE7C7E9004CF8E7C6F1200CB1
:10837000B34022FA0CF41C4320FA0CF521FA0CF35A
:10838000B14029434FEA144900FA06F5B3FBF9F866
:108390001FFA84FE09FB18300B0C08FB0EFA43EAA7
:1083A00000439A4502FA06F240D9E31808F1FF307B
:1083B00004D29A4502D9A8F102002344A3EB0A0390
:1083C00089B2B3FBF9F809FB183308FB0EFE41EA4A
:1083D00003418E452CD9611808F1FF3304D28E4534
:1083E00002D9A8F10203214443EA0040A0FB02980D
:1083F000A1EB0E014145CE46434602D306D14D4581
:1084000004D2B9EB020E68EB04030138002FA6D0AA
:10841000B5EB0E0261EB030101FA0CFC22FA06F344
:108420004CEA0303F140C7E9003198E74046C5E74D
:108430004346D9E7704700BF10F4805F10B5C0F322
:10844000002300F4007400F4806100F4006013D095
:108450001B0143F02002002C18BF134643F04002DA
:10846000D2B2002918BF134663F07F02D2B20028AF
:1084700018BF1346184610BD43F00202D2B2002CBA
:1084800018BF134643F00402D2B2002918BF1346A6
:1084900043F00802EAE70000034A01231188834001
:1084A0000B431380704700BFF61B0020034A0123D3
:1084B0008340108820EA030010807047F61B0020DC
:1084C00037B5ADF80400C0F3072005281ED89DF885
:1084D00004300E2B1AD8C0EB0010034403F007023F
:1084E00001259540C3F3CC02094B03EB8203013B0A
:1084F000002013F8014F21FA00F242F3000262401B
:108500002A400130544004281C70F2D103B030BD21
:10851000A41B002013B5ADF80400C0F30720052804
:108520001BD89DF804300E2B17D8C0EB0010034465
:108530000B4903F007040022C3F3CC0301EB8301D2
:1085400010468B5CE34003F0010393400132184373
:10855000042AC0B2F5D102B010BD0020FBE700BF75
:10856000A41B0020F0B50D4B0D4C1B7826780D4C4C
:10857000B34201D10020F0BD04EBC3056F788F42F8
:1085800006D114F83370874202D16D79954203D138
:10859000013303F00703EBE70120ECE7FE1B0020AB
:1085A000FD1B0020001C0020054B064A1B7812789A
:1085B0009A4200D17047013303F00703F8E700BF88
:1085C000FE1B0020FD1B002010B509490B7823EA93
:1085D000000010F00704087009D1984207D0054B3D
:1085E0005B785B0703D5C008FFF760FF0C7010BD18
:1085F000F81B0020FA1B002070B5174B174D187898
:10860000174B1B7818432B7893B11843154B9B7865
:10861000012B04D1144B93F90030002B11DB134BC9
:1086200006221A44002193420ED109B100232B7077
:108630000F4B1B7820EA03000E4B1B781843C0B287
:1086400070BD0D4B1E22ECE74C1C13F8016BE4B21D
:10865000002E18BF2146E6E7F01B0020F11B00208A
:10866000FC1B0020540F0020FA1B002022120020C7
:10867000DE1B0020DD1B00202A120020024A137896
:1086800023EA000313707047F01B002082B0ADF89E
:108690000410C1F3072105290CD89DF804300E2BD6
:1086A00008D848B9C1EB01111944044B33F8110043
:1086B00002B070470020FBE70120F9E7B0F10008A5
:1086C000E7284FD8DF2807D8312864D00ED82928CA
:1086D00057D02A2866D07047A0F1E003072B41D875
:1086E000DFE803F01540232831403C41392804D00D
:1086F000822802D035283FD07047324B1A78920733
:108700001FD15B7813F0080F18BF292070472D4A3E
:108710001378D9074DD4527812F0010F22D013F0FC
:10872000100F14BF0020E3207047264B1B7813F076
:10873000040FF3E7234A137859073CD45278D20741
:10874000EDD5E02070471F4B5A7891070AD51B786A
:1087500013F0100F14BF0020E7207047194B1B784F
:108760001A07F5D47047174A1378190725D4527899
:108770009107EDD5E4207047124B1B7813F0200FC2
:10878000C2E7104B1A78920619D45B7813F0080FE1
:1087900018BF392070470B4B1B7813F0400F18BFE0
:1087A0002A207047074B1B7813F0400F18BF312069
:1087B000704739207047E2207047E6207047352027
:1087C000D0E700BFFA1B002030B5304D2B785A0798
:1087D00011D500F0140100F018020C1F6142A2F143
:1087E000080C6141DCF1000242EB0C0280F00C0449
:1087F000914218BF2046190713D500F0140400F069
:108800001801A4F1140CA1F11802DCF1000444EBEE
:108810000C045142514180F00C02D2B28C4218BF7C
:1088200010466D78E90713D500F0110400F0180127
:1088300004F1FF3CA1F10802DCF1000444EB0C045C
:108840005142514180F00902D2B28C4218BF104609
:10885000AA0711D500F0110400F01801A4F11102CB
:108860005442A1F118055441694280F0090269415E
:10887000D2B28C4218BF1046DB0605D500F0E703E4
:1088800010F0080F18BF184630BD00BFFA1B0020BB
:1088900038B5FFF715FFB0F5A44F04463FD2B0F549
:1088A000A04F80F0A680DF2816D8CC2800F2868062
:1088B000A7280AD8A42874D8012804D0031F9BB283
:1088C000A12B28BF0024204638BDA0F1A8039BB2ED
:1088D0001A2B6BD90024F6E7B0F5804F16D2B0F50D
:1088E000005F80F09980E728EDD9A0F580739BB2F6
:1088F000B3F5F85FEED2C0F30720FFF765FF05463A
:10890000E0B2FFF7DDFE40EA0524DCE7C0B2FFF786
:10891000D7FE04F47064204340F42044D3E7B0F55C
:10892000A54F21D245F25F23984251D845F23F230B
:1089300098420ED845F21F23984242D800F0030413
:108940000123A340C0F3850243EA421343F40D44DC
:10895000B9E700F003040123A340C0F3820243EA15
:10896000421343F40C44AEE745F2BF2398420AD8C1
:1089700045F29F23984200F01F0034D84AF2F403D6
:1089800043EA00249FE7A0F5A543403B9BB21F2B81
:10899000A0D8040204F4F85444F4204444F0F00451
:1089A00091E7A0F1240444F480448CE75834204B30
:1089B000E4B233F8144044F4884484E740F4A0441B
:1089C00081E700F01F044AF2F10343EA04247AE746
:1089D00000F003040123A340C0F3820243EA4213E0
:1089E00043F40A446FE7FFF7EFFE040244F4005437
:1089F00069E700F01F00FFF7E7FE03B21A0102F07B
:108A0000F00210F0100FC4F3431418BF134643EAEA
:108A1000042343F4104456E7C0F30420FFF7D4FEC8
:108A20000546E0B2FFF74CFE40EA0524DEE700BF52
:108A300064F200087FB5114BADF804001D88104B9F
:108A40001B881D43ADB20F2445FA04F3DB0705D4A0
:108A5000013CF9D20026304604B070BDBDF80430A8
:108A6000ADF80C30E6B203993046FFF70FFEFFF782
:108A70000FFF80B20128EBD0EDE700BFF61B00200E
:108A8000F41B002013B502884379ADF80420019847
:108A900073B169B1FFF7CEFF044601460198FFF7B5
:108AA0000FFD0199204602B0BDE81040FFF7EEBD72
:108AB000FFF730FD0446F4E71FB5ADF80400019858
:108AC000FFF7B8FFBDF80430ADF80C300399FFF79D
:108AD000DDFD05B05DF804EBFFF7DABE08B50379FC
:108AE0002BB30088FFF7E8FFC3B2C0F303300628BA
:108AF00012D094BF0E30063000F00F00012812D8BB
:108B0000F02B12D004D8E72B8CBF0020012008BD29
:108B1000F43B58425841FAE7F12B18BFE72B94BFBA
:108B200001200020F3E70020F1E70120EFE71846DD
:108B3000EDE7002070470020704730BFFDE70000E0
:108B400030B50F4C94F80434BBB9302282F311884D
:108B50000C490D48CA698B605568284350605568B8
:108B60000A48284350600A4A136102220A7183F3BB
:108B70001188012084F8040430BD0220FCE700BF06
:108B8000081400201418002023016745AB89EFCD9D
:108B9000003C02400B4991F804348BB1302383F33D
:108BA0001188094AD069036943F000430361002337
:108BB00001209360107183F3118881F804347047A9
:108BC0000220704708140020141800200B4B37B502
:108BD0001C680B4B01911B7804440BB1C9430191F4
:108BE000084B186803680422DD68214601ABA847DA
:108BF000B0FA80F0400903B030BD00BFE80D00209E
:108C000010180020381800200E4B70B51C680E4B51
:108C10000444186803685B680D46984743690B492C
:108C20001E590B4C0B4A00230120087023700B7057
:108C30002178127819B1237018462B6070BD534209
:108C40007340FAE7E80D00203818002014130020C4
:108C50001513002010180020044B186900290CBFC0
:108C600008210A21C84000F00100704700000240BE
:108C70008379194216D18378B3B1827A120701EA57
:108C8000030103D5081E18BF0120704703F00F0031
:108C900001F00F0240EA131042EA1113C31A5842BE
:108CA00058417047002070470120704700EB400397
:108CB000C3EB031300EB830003B2002B07DA803B06
:108CC00018B2002800DAFF30001240B2704780303E
:108CD000FAE700000E4B1B78D90710D49A0710D47E
:108CE0005B0712D40B4B187868B11D280DD800EB28
:108CF000800000011E23B0FBF3F0C0B270471420C7
:108D0000FBE72820F9E70820F7E75020F5E700BF48
:108D1000D41B0020D61B00200E4B1B78D9070FD484
:108D20009A070FD45B0711D40B4B187860B1272832
:108D30000CD8C0002823B0FBF3F048B1C0B2704794
:108D40000220FBE70420F9E70120F7E70820F5E718
:108D500001207047D41B0020D51B002008B5A0F1CE
:108D6000CD03122B10D8DFE803F00A1013192E2EB2
:108D70002E2E2E2E2E2E1C21252B363C4100FFF7A9
:108D8000A9FF40421C4BD87008BDFFF7A3FFF9E7CD
:108D9000FFF7A0FF4042184B9870F5E7FFF79AFFE6
:108DA000F9E7FFF7B9FF144B1871EDE7FFF7B4FFD0
:108DB0004042F8E7FFF7B0FF40420F4B5871E3E73E
:108DC000FFF7AAFFF9E70C4AD13851780123834015
:108DD0000B435370D8E7094A137843F0010313702B
:108DE000D2E7064A137843F00203F8E7034A137800
:108DF00043F00403F3E700BFD71B0020D41B00207F
:108E0000414BCD2893F9032012D1002A01DA002228
:108E1000DA709A78D9780A4352B20AB93B490A7093
:108E20001A795B7913435BB20BB9394A13707047F7
:108E3000CE2802D1002AEADCEBE7CF2893F9022002
:108E400004D1002AE5DA00229A70E2E7D02802D1A4
:108E5000002AF8DCDDE7D92893F9042004D1002AA0
:108E6000D7DD00221A71D4E7DA2802D1002AD0DA3D
:108E7000F7E7DB2893F9052004D1002AC9DA00229C
:108E80005A71C6E7DC2802D1002AF8DCC1E7D138E4
:108E90000E28BED801A252F820F000BFD98E0008DB
:108EA000D98E0008D98E0008D98E0008D98E000806
:108EB000D98E0008D98E0008D98E0008138E0008BC
:108EC000138E0008138E0008138E0008E78E00082A
:108ED000F38E0008FD8E00085A780121814022EAB5
:108EE00001025A7095E70B490A7822F001020A70D4
:108EF0008FE708490A7822F00202F8E705490A7864
:108F000022F00402F3E700BFD71B0020D61B00208D
:108F1000D51B0020D41B0020034B1B6813B11B681A
:108F200003B1184718467047981B00200B4B07B534
:108F30001A8882420FD01880094B1B685BB11B69ED
:108F40004BB103228DF80500000A8DF806008DF85C
:108F5000042001A8984703B000BD00BFEA1200201A
:108F6000981B00200B4B07B51A88824210D018803E
:108F7000094B1B6863B11B6953B104228DF80500CE
:108F8000000A8DF806008DF804200DEB02009847CA
:108F900003B000BDE8120020981B002010B5154B4F
:108FA0009B78012B15D0144900224FF0FF3311F8A4
:108FB000014FA0421DD0B3F1FF3F01D104B953B21C
:108FC0000132062AF3D15A1C13D00C4A134498706C
:108FD0000FE00B4A92F90020002AE4DAEF2808D8C3
:108FE000084A02EBD00200F00700917883400B435F
:108FF000937010BD540F0020211200202012002079
:10900000FA1B00202812002010B5114B9A78012A73
:109010000CD0104A0623002112F8014F013B844274
:1090200008BF117013F0FF03F6D110E00A4B93F95B
:109030000030002BEDDAEF2809D8084B03EBD00302
:1090400000F007009978824021EA02029A7010BD70
:10905000540F002021120020FA1B002028120020AB
:10906000014B5878704700BF540F0020BFF34F8F5B
:109070000549064BCA6802F4E0621343CB60BFF3B4
:109080004F8F00BFFDE700BF00ED00E00400FA05D0
:1090900070B590F8472090F8463043EA02231A0A48
:1090A000032A88B01BD00DD8012A68D0022A13D118
:1090B000394A3B23394842600360002A08BF104602
:1090C00008B070BD90F8483090F84910212A43EA62
:1090D000012348D0222A4CD000231A46EAE7DBB20B
:1090E000032BF9D8DFE803F04E0205082C4A0A23C7
:1090F000E0E72C4A1423DDE72B4B2C4D1C787CBB7E
:1091000001221A70102221460DEB020005F0A8FA88
:10911000274B03F521610EC9CDE90412069304AB78
:109120000FCB8DE80F002348214608AB03EB61030A
:1091300013F8202C140905EB4103045D9C700024F6
:10914000DC7002F00F024B1C05EB43030231825C22
:109150009A702029DC70E8D142232B7003236B70B6
:109160002B78124AA6E783B1012BB5D1124A092305
:10917000A0E76BB1012BAFD1104AB6239AE7104A92
:10918000122397E70F4A042394E70F4A092391E734
:109190000E4A44238EE700BFBFEB0008E012002018
:1091A0009FEA0008ABEA00089A1200209B120020F8
:1091B0000070FF1F8EEA0008EAEB0008C1EA000811
:1091C000FAEB0008BBEB0008D1EB000877EB0008D6
:1091D00010B5064A064C117824784B1C03F00F0397
:1091E0009C421EBF034C1370605410BD6B1A0020CC
:1091F0006A1A00205A1A002090F84A2090F84B0072
:10920000084942EA0022022A0B7807D1012B01D03B
:10921000062B05D1044B4A785A707047024A5370A6
:10922000704700BF98120020540F002070B590F8CE
:10923000441001F07F03212B044640F09A8011F086
:10924000800F90F8453053D0022B35D0032B25D01A
:10925000012B4DD190F84830012B01D9002070BD71
:1092600090F846100829F9D8594AD25C012AF5D855
:10927000584BA82000FB0233D3F8A430002BEDD0CC
:10928000554D5E6818682A46B04705F10803A36388
:10929000AB6C0022E36322640120E0E790F84820F1
:1092A00090F8493052EA032263D14C494C4B8978FB
:1092B000197083630123EDE790F84830012BCDD876
:1092C00090F846100829C9D8414AD25C012AC5D86D
:1092D000404BA82000FB0233D3F8A430002BBDD0B4
:1092E0005A69186890473F4BA36318700123D0E771
:1092F0000A2B21D00B2B0ED0092B3AD194F84830F1
:1093000094F8492043EA0223012B32D8364BA36359
:10931000364A0223BEE794F8483094F8492053EACD
:10932000022306D194F846302C4A003B18BF012393
:1093300093700023A363ACE7284B94F847201A707E
:1093400094F84830012B89D894F84610082985D81C
:109350001F48C05C012881D81E4BA82505FB00339F
:10936000D3F8A430002B3FF479AF1D691868A847E3
:10937000DFE701F09F01812918D194F84530062BD1
:1093800014D194F84920616894F848304D6894F8F5
:10939000461043EA0223204694F84720A8470028B5
:1093A0003FF45CAF4368A363036872E7094D02268C
:1093B000D5F89C3033B9012E05F1A8053FF44EAF26
:1093C0000126F5E7204698470028F4D064E700BF5F
:1093D0008CEA0008040E002048120020540F0020E0
:1093E000951200209412002098120020F991000894
:1093F000302383F31188026943699A4210D1C3680C
:1094000083B1D0F8882090F88C10128901238B400A
:1094100013420CBF01200020002383F31188704702
:109420000020F9E71846F7E7036843B19100196097
:1094300003490B78002A18BF43F001030B707047F3
:10944000541B0020006810B10068C0F3870070470B
:1094500038B503680BB9002038BD302383F3118879
:10946000036800211C685B6881F31188002CF2D02E
:109470004FF08042084D506A084AC01A4FF47A7C77
:10948000E0FB0C5100232846FEF766FE84428CBFA9
:1094900000200120E0E700BF9F860100A0860100B8
:1094A0004B1E072B0BD850F8213043B191001960A7
:1094B00003490B78002A18BF43F001030B70704773
:1094C000541B0020082906D850F8210020B100685C
:1094D000C0F387007047002070470000082938B5A6
:1094E00001D9002038BD50F82130002BF9D03023AD
:1094F00083F3118850F8213000211C685B6881F3E8
:109500001188002CEDD04FF08042084D506A084A77
:10951000C01A4FF47A7CE0FB0C5100232846FEF77A
:109520001BFE84428CBF00200120DBE79F860100E8
:10953000A086010072B6014BD865FEE7A813002093
:10954000034A516853685B1A9842FBD8704700BFC2
:10955000001000E010B503461B68984203D09C68D9
:109560008A689442F8D25A680B604A601160596068
:1095700010BD03691960C268013AC260C269134430
:1095800082690361934224BF436A036100238362BB
:10959000036B03B11847704711F00C0F10B502D0E0
:1095A0000B48FFF7C7FF036B446B1A68116821F083
:1095B0001F0111601168C907FCD4597A5A683D230C
:1095C0008B401360636843F40073636010BD00BF99
:1095D000ACE60008436DD3F8002942F4001210B540
:1095E000C3F80029D3F8002B42F40012C3F8002B73
:1095F00043681B6804460BB106219847A36823F013
:109600000113A3600023E363062384F8343010BD04
:10961000044890F85030037043681B680BB1052173
:1096200018477047701A0020036810B55B680C4635
:109630009847C36813B153F8340010BD0069604304
:10964000FBE7036810B55B680C469847C3681BB11D
:1096500003EBC403586810BD0069FCE7C269D36816
:1096600099B2D160DA0608D413F0620307D0037907
:10967000042B14BF042003207047062070471846AF
:109680007047006A70472DE9F3479A460379052B26
:1096900007460E4615464BD0C469D0F820800423F7
:1096A00003714FF6FF73E360236923F44073236172
:1096B000236943F400732361236943F001032361A9
:1096C0004FF0FF09002D31D0D8F80430002104E01C
:1096D00008326A44013102F8049CCAB29342F7D8B6
:1096E000D8F8141026F0030206F0030308336B4485
:1096F0001AF8010B03F8040C0136B00705F1FF3529
:1097000001D0002DF0D1019B8B50E368DB03FCD42A
:109710003846FFF7A3FF0028D4D0236923F00103C4
:10972000236102233B7102B0BDE8F0872846F4E7CD
:109730000120F8E70379052B0CBF012007207047B3
:109740000379052B1DD005230371C3694FF6FF7202
:10975000DA601A6942F002021A611A6922F0F8020C
:109760001A611A6922F440721A611A6942EAC10246
:1097700042F400721A611A6942F480321A610020C0
:1097800070470120704738B50279052A044610D188
:10979000C369DD68ED0308D41A6922F006021A6174
:1097A000FFF75CFF0223237138BD01B10A6001207D
:1097B000FAE70020F8E770B50379052B05460E4659
:1097C0001AD0036A5C69FFF72FFF032304442B714F
:1097D00031462846FFF735FF20F00300234620449A
:1097E000834203D1002002232B7170BD53F8042B58
:1097F0000132F5D00520F6E70120F6E7C27A5309D9
:109800009B0003F1604310B503F5614302F01F04B0
:10981000012101FA04F4C3F88040C3F8804102F149
:10982000604303F56143002283F80023837A104AE2
:109830009940136823EA01031360DAB24AB90D4A6A
:10984000116B21F400111163116D21F400111165E8
:10985000126D13F47F4F09D1064B1A6B22F480026C
:109860001A631A6D22F480021A651B6D10BD00BFC9
:109870001813002000380240F0B5254F01263A6841
:109880008640324241D107EBC00C32433A60214A54
:10989000CCF804102049CCF80810116B1F4B41F490
:1098A00000111163116D0C25454341F40011116540
:1098B000126D5A59116821F01F01EC1811601168DE
:1098C00011F00101FBD10C2505FB00333D205E7A30
:1098D0005D68DB7AB040286011602121516103F19D
:1098E000604202F56142502182F8001303F01F012B
:1098F0005B099B0003F1604303F5614301228A4049
:10990000C3F880211A602046F0BD0024FBE700BFA9
:1099100018130020003802404C1C002018F00008EA
:10992000436B4FF400421A6000221A605A605A6179
:10993000036B1A68116821F01F0111601168C907D3
:10994000FCD4597A5A683D238B401360C36A1A6865
:10995000116821F01F0111601168C907FCD4597A00
:109960005A683D238B4013607047836D70B5446D1A
:109970009E6800224FF0FF3504EB42135101D3F8EB
:1099800000090028BEBFD3F8000940F08040C3F8AA
:109990000009D3F8000B0028BEBFD3F8000B40F03D
:1099A0008040C3F8000B013263189642C3F808598F
:1099B000C3F8085BE0D24FF00113C4F81C3870BD47
:1099C000114A936DF0B59D68576D002302F1080CA4
:1099D000194601265CF8044F7CB101F11000A26920
:1099E000646906FA00F01843002A18BF034606FA15
:1099F00001F01843002C18BF03460131A942E9D9F0
:109A0000C7F81C38F0BD00BF701A0020890141F072
:109A10002001016103699B06FCD41220FFF790BD71
:109A200010B5C468A3691A681A61402A84BF40222D
:109A30001A60638A591E1144B1FBF3F14B4303339F
:109A400023F00303426D43EAC14343F0C043C2F82D
:109A5000103B236803F00303012B0CD1D2F8083824
:109A600013F4807FD2F8003B14BF43F0805343F0DF
:109A70000053C2F8003BD2F8003B43F00443C2F865
:109A8000003B10BD438943F001034381C3689B69D8
:109A90001A60002299605A60DA60FFF7C1BF00EBDC
:109AA000810330B5DC68426D65692B682B614BBB67
:109AB00002EB41134FF40020C3F81009236803F0B0
:109AC0000303012B0ED1D2F8083802EB411013F436
:109AD000807FD0F8003914BF43F0805343F0005327
:109AE000C0F8003902EB4110D0F8003943F00443CC
:109AF000C0F80039D2F8340801238B400343C2F880
:109B0000343830BD19B9402B84BF40232B60258ADF
:109B1000681E1844B0FBF5F043EAC04302EB411065
:109B200043F00053C0F81039C8E730B40589012468
:109B30008C402C43048100EB8104E4686469236059
:109B40000023A2606360E36030BCFFF7A8BF10B4DD
:109B5000436BD3F888000278042A11D193F88C1053
:109B6000048901228A4022420AD15A691C6994421E
:109B700001D1DB6823B910BC52F8043BFFF7D5BF15
:109B800010BC704710B590F834300B2B044609D840
:109B90000B2B39D8DFE803F0083838383838083864
:109BA000380D2A39152B2FD12046BDE81040FFF77C
:109BB00011BD90F84A3090F84B20C16B43EA022364
:109BC000994213D2C3681B8AB1FBF3F203FB121153
:109BD00061B9302383F311880B460A46FFF7A5FFCE
:109BE00081F311880A2384F834300DE0142384F8BB
:109BF0003430302383F31188002211462046FFF7CA
:109C000041FF002383F3118810BD036C03B1984713
:109C1000A36823F00113A3600023E363E3E710B517
:109C200090F83430142B04461DD00CD8062B05D0E8
:109C300001D81BB110BD0A3B012BFBD82046BDE863
:109C40001040FFF7C7BC152BF4D10B2380F834303C
:109C5000302383F3118800231A461946FFF765FF66
:109C600081F31188E6E7C3689B695B68002BE1D14B
:109C7000036C03B19847A36823F00113A36000238A
:109C8000E36384F83430D5E74B6843608B688360C6
:109C9000CB68C3600B6943614B6903628B694362A4
:109CA0000B6803607047000010B51C4B9B78012BBC
:109CB0001ED11B4B93F90030002B19DAFEF79CFCE8
:109CC000184C194960702022204604F0DFFC20B3B4
:109CD00015482022214604F0CBFC144B1B68E3B14D
:109CE0009B68D3B1062222702046BDE81040184779
:109CF000FEF782FC0E4C0F4920700822204604F02B
:109D0000C5FC50B10B480822214604F0B1FC074BBA
:109D10001B6813B15B68002BE6D110BD540F002007
:109D2000FA1B002028120020781B0020981B00201E
:109D3000201200209C1B002028B1034B1A781043EE
:109D40001870FFF7B1BF7047F01B002008B528B1AD
:109D5000FEF794FCBDE80840FFF7A6BF08BD000071
:109D600028B1034B1A7810431870FFF79DBF704756
:109D7000FC1B0020014B185C704700BF081400203A
:109D8000014BC05A704700BF08140020006810B48F
:109D900048B14FF080440830646A40F8044C0264D3
:109DA00010BC04F065BC10BC70470168134631B1AB
:109DB0008A6C9A64083103F1080004F059BC7047BA
:109DC0000B78082B10B40BD850F8230040B14FF09B
:109DD000804310BC5B6A43608264083004F048BC76
:109DE00010BC70470829134609D850F8211031B12A
:109DF0008A6C9A64083103F1080004F039BC70479A
:109E000038B50446007905280FD003202071E06999
:109E10004FF6FF75C560206A40690144184604F09A
:109E200027FC02232371002038BD0120FCE700003D
:109E300008B54FF480620548002104F011FC034A84
:109E40004FF48163C2F8003408BD00BF081400203D
:109E5000084B9B78012B09D1074B93F90030002B5D
:109E600004DA06481E22002104F0FABB0448062248
:109E70000021F9E7540F0020FA1B00202A120020CD
:109E80002212002010B50446006840B1826C002107
:109E9000083004F0E5FB236800221A605A6010BD08
:109EA00070B5051F00F12004002655F8040F38B1E5
:109EB000826C0021083004F0D3FB2B681E605E60CA
:109EC000A542F2D170BD08B50A4664230146782048
:109ED00004F052FBB0FA80F0400908BD074B1B7834
:109EE00010B54BB1064C237833B106480221FFF779
:109EF000EAFF08B10023237010BD00BF521A0020F2
:109F0000511A002014F00008022910B538BF0221B0
:109F100002234FF0804442186263626A101A814241
:109F200003D8591C0B461046F5E7022B81BF034AA4
:109F3000D36A43F00103D36210BD00BFA813002011
:109F400070B5134D05F11003E96143602B69826020
:109F5000022A036038BF0222586028614FF0804017
:109F60008B184363002303610223C360446A661AAB
:109F7000964205D35A1C1144416313462146F5E726
:109F8000022B82BFEB6A43F00103EB6270BD00BF9E
:109F9000A813002000230375826803691B68996871
:109FA0009142FBD25A68036042601060586070476B
:109FB000F8B500EB810305469C690E46002C56D08F
:109FC000302383F311882269616900238A4284F86F
:109FD000A03001D1E36843BB05EB8603DB685B6916
:109FE0001B6813B3D4F8A4304BB18A4202D1E268A3
:109FF000002A30D151F8042B9F681868B847E368ED
:10A00000E26920680133E36063691344A269636114
:10A01000934224BF636A6361844206D0036823606D
:10A020005C6000238361FFF7B5FF62692369934297
:10A0300014D1E36893B105EB8603DB681A68022A42
:10A0400012D15A6912687AB11B8A013B13400BD1B5
:10A0500005F1440204E000221146CDE752F8043B2A
:10A0600031462846FFF761FD002383F31188F8BDD0
:10A0700008B5302383F311880A7D0023052A06D80A
:10A08000DFE802F00C050503130F8A6913604FF037
:10A09000FF338B610846FFF77DFF002383F31188B0
:10A0A00008BD8A699368013393604A680B6813603E
:10A0B0005A60ECE703682BB10022026099611846F0
:10A0C000FFF768BF7047000011F00C0F38B502D0E1
:10A0D0001448FFF72FFAC26A436B11680C6824F02A
:10A0E0001F040C600C6814F00104FBD1557A516810
:10A0F0003D22AA400A605A6822F480525A601A68C7
:10A1000022F480621A601A6842F400721A603023E6
:10A1100083F3118821461C30FFF7CCFF84F31188AC
:10A1200038BD00BFACE600082DE9F04190F83430AE
:10A1300004463BB1836823F0011383600023C363AB
:10A1400080F83430E3680822196A04F1440004F00E
:10A150008FFA63689B684BB994F8443013F060053C
:10A160002BD02046BDE8F041FFF734BA204698478F
:10A170000028F1D094F84A3094F84B20E56B43EA7C
:10A1800002239D4284BFE3631D4694F94430002BB3
:10A190004FF0300380F23E81002D00F02D81092226
:10A1A00084F8342083F31188E36BA26B00212046EE
:10A1B000FFF7BBFC81F311882AE194F8452003F0F6
:10A1C0007F0343EA022340F20232934200F0F98017
:10A1D00021D8B3F5807F4CD00DD8012B43D0022B72
:10A1E00000F0BC80002BBCD104F14C02A26302221F
:10A1F000E2632364BEE7B3F5817F00F0C480B3F56A
:10A20000407FAED194F84630012BAAD1B4F84C303F
:10A2100043F0020336E0B3F5006F57D01BD8B3F517
:10A22000A06F35D0A3F5C063012B9AD894F84920CC
:10A23000616894F848304E6894F8471043EA022366
:10A24000204694F84620B04700288AD04368A3638C
:10A250000368E3631AE0B3F5106F3CD040F60242A6
:10A2600093427FF47EAF774BA3630223E363002323
:10A27000BFE794F84630012B7FF473AFB4F84C304D
:10A2800023F00203A4F84C30A563E563256471E76D
:10A29000B4F84430B3F5A06F14D194F84610626D51
:10A2A00084F84E10D2F8003823F4FE6343EA011319
:10A2B000C2F8003863681B6813B101212046984733
:10A2C000032323700023A363E36392E704F14F03A6
:10A2D000A3630123BDE72378042B2FD1302383F31D
:10A2E0001188A36803F00113A36004F10C0604F1C4
:10A2F000180856F8047F6FB1786920B16FF001013A
:10A300000C30FFF7D7FEB86920B16FF001010C30B7
:10A31000FFF7D0FEB0453560EBD1A36D1B68E36558
:10A320002046FFF722FB85F311880321636884F838
:10A330004F5021701B680BB12046984794F8463067
:10A34000002BBFD084F84F300423237063681B6850
:10A35000002BB7D0022120469847B3E794F8482055
:10A3600012F0800F02F00F03626D0AD048335B01D8
:10A37000D3581A047FF5F5AE99024CBF324B334BDC
:10A3800072E75833F3E794F84630002B7FF4E9AED8
:10A3900094F8483013F00F0294D013F0800F636DDF
:10A3A00003EB421306D0D3F8002922F40012C3F8BD
:10A3B000002987E7D3F8002B22F40012C3F8002B02
:10A3C00080E794F84630002B7FF4CBAE94F8483009
:10A3D00013F00F023FF476AF13F0800F636D03EBC1
:10A3E000421304D0D3F8002942F40012DFE7D3F877
:10A3F000002B42F40012E1E7142284F8342083F3A6
:10A4000011882A4629462046FFF73CFB85F3118830
:10A41000BDE8F0816DB1152284F8342083F31188F2
:10A42000E26BA16B2046FFF72DFB002383F311881D
:10A43000EEE70B2284F8342083F311882B462A465A
:10A440002946B4E60CE900080AE9000808E9000812
:10A450002DE9F84F554D6F6D07EB40130446D3F8C7
:10A460000889C3F8088918F0010F19D0D7F81038F7
:10A47000DB0715D5861C05EB860359684B69186800
:10A480001A6990422ED2121A00261A605E6030239A
:10A4900083F3118821462846FFF701FB86F31188D4
:10A4A00018F0800F1CD0D7F834380126A64033426C
:10A4B00016D005EB84036F6DD3F80CC0611CC9B2D4
:10A4C000DCF8140007EB013107EB4414D0E9003548
:10A4D0009D4221D3D7F8343823EA0603C7F834382D
:10A4E000BDE8F88F2B890122A24023EA02032B81C9
:10A4F0008B6813B1214628469847302383F311888F
:10A5000005EB86060021736858690C30FFF7D2FD11
:10A51000002383F31188C3E7BCF810205B1B934230
:10A5200028BF1346D4F8182992B2B3EB820FD7D8BC
:10A53000D0F808E0994603EB0E08B9F1030F1CD8D8
:10A5400013F003024FEA930923F0030A10D0022A02
:10A55000F24426D0032A26D19AF8022012049AF84F
:10A5600001A042EA0A221EF829E04EEA02020A602D
:10A570001D44C0F808804560A8E7A8EB090AA9F1C6
:10A5800004099AF801B09AF8002042EA0B229AF8DE
:10A5900002B09AF803A042EA0B4242EA0A620A6059
:10A5A000CBE70022DBE70022DDE700BF701A0020C6
:10A5B000F8B5294C666D06EB40130546D3F8087BC9
:10A5C000C3F8087B38070AD5D6F81438190706D51A
:10A5D00004EB85032946DB6820465B689847FA0749
:10A5E0001FD5D6F81438DB071BD5AE1C04EB860349
:10A5F0005968BDB98B69488A5A68B2FBF0F700FB0D
:10A6000017227AB918681A6990420BD2121AC3E954
:10A610000025302383F311880F48FFF701FA85F3F3
:10A620001188F8BD63890122AA4023EA02036381ED
:10A63000CB6813B1084829469847302383F3118823
:10A6400004EB86046368986941680C30FFF732FDBB
:10A65000002383F31188E4E7701A002038B504461C
:10A660006FF001052068844200D138BD0368236083
:10A670005C608561FFF78EFCF4E7026AC260426AA3
:10A680004261026100228262C262FFF7E7BF0000FE
:10A690002DE9F74F052900F2DB80DFE801F0B9D999
:10A6A00003B9B9DC302383F311884FF00009704FF0
:10A6B000C846D7F888A097F88C500AEB850607F1B2
:10A6C0003802F260F86C18B11422002103F0C8FFC0
:10A6D000386D18B11422002103F0C2FFF068DAF8D7
:10A6E0005440066806F00306721E022A98BFB6049C
:10A6F00004EB451C826988BF5E4ECCF8108B98BF76
:10A7000006F1805605F110014FF0010398BF06F5E0
:10A71000004603FA01F1002A58D0B0F812C005F142
:10A72000580252014CEA0603A350D4F81C280A43ED
:10A73000C4F81C28416904EB45120123C2F81089B2
:10A7400003FA05FB00294CD0028A818B01924FEA63
:10A75000920C994288BF01FB0CFC05F13F03DAF82B
:10A760005C1004EB83030CEB010041EA0C41CAF8D6
:10A770005C00596020462946FFF748F9019A42EAF1
:10A78000855248356D0132436251D4F81C3843EA92
:10A790000B03C4F81C383846FFF76FFF09F10103BB
:10A7A000022B87F808804FF0010907F1A80780D134
:10A7B00088F31188304B1B7813B10520FEF708FD94
:10A7C000022003B0BDE8F04FFEF702BDDCF8002B1D
:10A7D00022F40042CCF8002BD4F81C2822EA010213
:10A7E000A6E705F13F0304EB8303244959602046A3
:10A7F00029460192FFF70AF9019AD2F8003923F4A9
:10A800000043C2F80039D4F81C3823EA0B03C0E730
:10A810000846FEF7DDFC302383F31188144C002535
:10A82000012620462672FFF719FF2046FFF725FF75
:10A83000D4F8A43013B1DA68186890476B1C022B67
:10A8400004F1A8044FF00105EBD1002383F3118834
:10A8500003B0BDE8F08F302383F31188044A00234E
:10A86000137282F8B03083F311880520A9E700BF86
:10A87000040E0020008000106C1A0020000400026A
:10A88000054BD9680875186802681A605360012280
:10A890000275D860FDF746BCA81300202DE9F043EF
:10A8A000384D4B1CEF6887B080460A4666D02E466E
:10A8B000354B56F8109F0393002305934FF08043C8
:10A8C000B145586A04971AD101466846FFF738FB2C
:10A8D0004046FFF7D5FF009B6BB129696A4691425C
:10A8E00033D0019A029913605A609A680A449A60B8
:10A8F0004FF0FF33AB61B86907B0BDE8F083EC6996
:10A90000D9F80830041B0C1928BF0C46A34201D902
:10A91000FFF7FAFAD9F808309C4212D80294D9F815
:10A920000830D9F8042001921B1BCDF80090C2F822
:10A9300000D0C9F808304FF0FF33C9F804D0AB613C
:10A94000C6E7D9F80090E41AE4E7B3422B615E60F1
:10A9500004D14FF080430022DA60CCE79A68029974
:10A960000A449A604FF08043E969586A431A9A4250
:10A97000C1D9091A1144FFF7C7FABCE7FFF780FFF6
:10A98000B9E700BFA813002071A0000838B500F196
:10A990000C05302383F31188174B4169DC6891B9AA
:10A9A000236A44618361256221E08B600B7D7BB16A
:10A9B000062B14D10B684A68886913605A60FEF749
:10A9C000C9FD8B699968A3688A689342EDD806E04F
:10A9D0004A680B68136008465A60FFF7DBFA28469E
:10A9E0002146FEF7B7FDA5610620FFF749FF0020CD
:10A9F00080F3118838BD00BFA8130020302383F3F3
:10AA00001188104B5B6813F4006317D0F1EE103A15
:10AA1000EFF30983683B4FF08072DA610A4AD26B28
:10AA20001A6683F30988094A1168D26889689268AE
:10AA300091428CBF064A074A9A61704783F3118896
:10AA4000704700BF00ED00E000EF00E0A813002019
:10AA50004F81000852810008704700006D4A08B518
:10AA600052F8041C6C4B994230D1002342F8043C4C
:10AA700072B6BFF34F8FBFF36F8F684A516A21F4EC
:10AA800080315162D2F8941021F00101C2F8941083
:10AA90004FF0E0224FF0FF311361936153619A0050
:10AAA00002F1604202F561420133082BC2F88010C6
:10AAB000C2F88011F3D1002383F31488584B1A682D
:10AAC00082F3088862B65B689847FEE7554A5648A5
:10AAD000136940F2FF110B43136113696FF308030D
:10AAE00013611369136B0B431363136D0B434F49CE
:10AAF0001365136DFFF7C8F81C3100F58060FFF790
:10AB0000C3F81C3100F58060FFF7BEF81C3100F57A
:10AB10008060FFF7B9F81C3100F58060FFF7B4F8EA
:10AB20001C3100F58060FFF7AFF81C3100F5806044
:10AB3000FFF7AAF81C3100F58060FFF7A5F81C317B
:10AB400000F58060FFF7A0F84FF080531364384B96
:10AB50004FF440411960136843F001031360136818
:10AB60009907FCD5936823F0030393602D4B9A68F3
:10AB700012F00C02FBD1196801F0F90119609A601A
:10AB80001A6842F480321A601A689203FCD55A6F30
:10AB900042F001025A67234B5A6F9007FCD5254AB1
:10ABA0005A601A6842F080721A60214A5368590448
:10ABB000FCD51C4B1A689201FCD51F4A9A601F4BAA
:10ABC0001A681F4B9A421F4B21D1144A11681E4A22
:10ABD00091421CD140F205121A601A4A136803F020
:10ABE0000F03052BFAD10F4B9A6842F002029A60CC
:10ABF0009A6802F00C02082AFAD15A6C42F4804298
:10AC00005A645A6E42F480425A665B6E08BD40F246
:10AC10000572E1E700000220EFBEADDE00ED00E0CE
:10AC20000000FF1F003802400000024090E90008C9
:10AC3000007000400C54400700948838002004E065
:10AC400011640020003C024041C20F417047FEE702
:10AC5000114AF0B508200026516813689468043B37
:10AC60000D46AC4210D8E31C5B1ACD1E23F0030343
:10AC7000AC4238BF00230B44D168994209D801384F
:10AC800002F11002E8D1F0BD53F8047F45F8047BCF
:10AC9000E7E743F8046BF0E710E900080C4B18688D
:10ACA000D968026810B453601A6001220275D86036
:10ACB00000230B758A680B691B689C689442FBD85B
:10ACC0005A680B604A6010BC11605960FDF72ABADF
:10ACD000A8130020044B1A68DB6892689B689A42AC
:10ACE00001D9FFF7DBBF7047A813002070B5EFF361
:10ACF000118525B9EFF30583302282F311884FF0D7
:10AD00008043164E16495C6A33680A68E41AA24208
:10AD1000144A0AD9A3F58333E03B10683360124B21
:10AD200004F58334C318E034136016680C6035B939
:10AD3000EFF30583C3F308036BB185F311880B4868
:10AD40000B4A4FF47A7500210023E4FB0501FDF75F
:10AD500003FA304470BDFFF7BDFFEEE74418002052
:10AD6000401800203C18002088598F029F8601005F
:10AD7000A08601000A4B1B7810B583B1FFF7B6FF20
:10AD8000084C094B00F56A4060301860237833B9ED
:10AD900006480221FFF797F808B10123237010BD80
:10ADA000521A0020511A0020541A002016F00008F0
:10ADB0002DE9F04F7E4D2E7889B0002E00F0F48002
:10ADC0007C4B06937C4F7D4BDFF8189207937C4CAD
:10ADD000B9F800803C604FF002230593FFF786FF2F
:10ADE000A0EB080080B2B0F5FA7FDFF8EC812DD936
:10ADF000FFF77CFF734A1378013303F001031370EC
:10AE000008AA02EB830280B252F808CCC9F800000D
:10AE100008AA02EB43033A6833F80C1C121B93B2E6
:10AE2000C3F5007011FA82F780B2B7F5007FC8BF92
:10AE30000146B8F80000002711FA82F24FF0010E27
:10AE40009342C0F295800FB1A8F80000B8F8003026
:10AE5000002B7CD02B78002B79D05B4B1D78002DFC
:10AE600075D1FFF787FFB8F8001000296FD02A4688
:10AE7000D6B241FA06F0C007134602F10102F7D537
:10AE8000524D2A78D20740F18280DB00D91D00277D
:10AE900003224F48C1700721837047718271FFF709
:10AEA00012F8002853D02B78DB074FEA461776D5E7
:10AEB0004848DFF83491DFF834812022002103F084
:10AEC000CFFB002019F8013B3D4A18F8011B3B4419
:10AED000134403933F4B194401390024012311F813
:10AEE00001EFC4F1070A03FA04FB0025039B5B5D35
:10AEF000AAEB05020BEA030302F0070203FA02FCC5
:10AF00005242DBB202F00702D3404CEA030C013597
:10AF10004EEA0C0C082D5FFA8CFEE7D10134082CA8
:10AF200081F800E0DAD10130C0B20428CAD164232C
:10AF3000284A009320234021782003F049FB30B9B0
:10AF4000254901220B88B24023EA02030B80234BE0
:10AF50001B784BB3FFF7CAFE214B1B68C01A6FF07A
:10AF60000043984220D209B0BDE8F04FFEF7B6BFCB
:10AF70001CF8011B14F80390894505D0E1545909C8
:10AF80000EFA01F10843374601339BB258E75B01E3
:10AF9000B20803F0600303F11F01174679E7642349
:10AFA0000093E2192023C6E709B0BDE8F08F00BF87
:10AFB000521A00200CEE00084C1800200CEC00087F
:10AFC00050180020EE120020501A0020591A0020BC
:10AFD000DC0D0020F412002048180020511A002037
:10AFE000541A0020F012002010F000080CF00008A5
:10AFF00070B50B4C05462668FFF778FE801BB0F550
:10B00000FA7F09D220684FF4FA73064A1060064AA4
:10B010001360064B1D8070BDFFF768FE3223F4E716
:10B02000E81B0020F01A0020EC1A0020E41B00208E
:10B0300010B5FFF75BFE0D4B9A78D9780A4352B2F0
:10B040000AB10B4A10801A7959790A4352B20AB1EF
:10B05000084A1080084A12683AB1D2682AB102211F
:10B060001970BDE810400148104710BDD71B0020E3
:10B07000021B0020001B0020981B002010B5044676
:10B0800000285AD0031FDBB2A02B27D82B4B9B786C
:10B09000012B0FD02A4A002312F8011FA14217D01A
:10B0A0000133062BF8D12046FDF778FFBDE81040AC
:10B0B000FEF7FABD234A92F90020002AEADA224A72
:10B0C00002EBD00200F0070192788B401A42EAD0DE
:10B0D0002046FDF799FFFEF7E7FDE4E700F12003C6
:10B0E000DBB2072B08D8194A00F0070411780123B6
:10B0F000A3400B431370D9E700F15B03DBB2022BD3
:10B1000005D82438BDE8104080B2FDF70FBF00F12C
:10B110005803DBB21A2B06D80D4ABDE8104032F8AE
:10B120001300FDF71FBF3334E4B2122C05D8FDF72E
:10B1300015FEBDE81040FFF77BBF10BD540F002087
:10B1400021120020FA1B002028120020F01B0020F2
:10B1500064F2000808B50346A0B3021FD2B2A02AC9
:10B1600005D8FDF751FFBDE80840FEF79DBD00F191
:10B170002002D2B2072A07D800F007030120984026
:10B18000C0B2FDF77BFAEEE700F15B02D2B2022A11
:10B1900004D8BDE808400020FDF7C8BE00F1580201
:10B1A000D2B21A2A04D8BDE808400020FDF7DABE62
:10B1B0003333DBB2122B05D8FDF722FEBDE8084081
:10B1C000FFF736BF08BD0000F8B5244E33680746C8
:10B1D000002B3BD0224A1C8900201080214A10708D
:10B1E000214AA4F58071107024F4F852B1F5F85F8B
:10B1F00038BF1446651EADB247F63E629542DA6826
:10B200008CBF0025012512B11969904705403DB159
:10B21000E5B2043CA4B2A02C19D82846FDF7F4FEF0
:10B22000124C77B133689A7AD2060AD4227842B1A6
:10B230001888431E9BB247F63E62934201D8FFF73F
:10B24000D7FEFEF731FD002333602370F8BDFEF713
:10B250002BFD2846FFF77EFFE2E700BFE01B002042
:10B26000E41B0020DE1B0020DD1B0020DF1B002074
:10B270000F4B10B500241C70FEF7EAFD2046FDF7C9
:10B2800055FE2046FDF76EFE0A4B1C70FEF70CFDC6
:10B2900021460948062203F0E3F9084B1C70084BCD
:10B2A0001C70084B1C70BDE81040FFF7C1BE00BF0A
:10B2B000F01B0020FC1B0020D71B0020D61B002009
:10B2C000D51B0020D41B00202DE9F04F85B080460F
:10B2D00002919146302383F31188524EA82404FB37
:10B2E0000064D4F888301B78042B4FF0000304D09E
:10B2F00083F3118805B0BDE8F08F94F8A020002AF0
:10B3000042F2107218BF0022019283F31188454265
:10B3100005F0A8053544302383F31188DFF808B120
:10B32000029F4FF0000AA26A3AB9E26852B322695A
:10B33000111DA162E1690A44E262A06AE26AA9EB16
:10B340000A01121A8A4228BF0A46402A43D93946BE
:10B35000402203F08DF9A16A403740310AF1400ADA
:10B36000E26AA1628A4204D8E16928460439FEF7FC
:10B3700000F9002282F31188D1451BD9302282F3D3
:10B380001188D0E7227A7AB9019B6BB1DBF80C20E7
:10B3900069685160156004200A606A6042F21071A9
:10B3A000FFF77CFA0028C0DA4FF0000B8BF311880E
:10B3B000D1451AD8302383F31188A82303FB0866EC
:10B3C000B16A31B133690439C91A02D02846FEF78F
:10B3D000D0F800238CE73946039203F049F9039A29
:10B3E000A16A174411449244BAE7302282F31188CB
:10B3F000A82707FB0867284697F8A020BAF1000F96
:10B4000008BF42F0010287F8A020FFF727F928467D
:10B41000FFF733F987F808B0FFF75CFC8BF311886E
:10B4200079E700BF040E0020A8130020014608227F
:10B430000120FFF749BF014620220020FFF744BF4B
:10B44000014606220020FFF73FBF014603220020ED
:10B45000FFF73ABF164A38B500F10C010346D06831
:10B46000302282F31188DC689A690262A1421BD003
:10B47000446A82B98460D8680268DA605160026AFE
:10B4800058619A610162FEF785FDFFF723FC0020F9
:10B4900080F3118838BD1568AA4203D0AD68AC426C
:10B4A00038BF2C46D268E4E700225A61EFE700BFBC
:10B4B000A8130020302383F31188034BDB689861C5
:10B4C0000F20FFF7DDB900BFA813002008B5014623
:10B4D000302383F311880820FFF7E0F9002383F37A
:10B4E000118808BD2DE9F0411F460C46274B164632
:10B4F00068B11970FFF7FAFB254B04F007041880B8
:10B500000120A040C0B2BDE8F041FEF715BC1D7897
:10B510008D4233D11E4BB3F80080FFF7E7FBA0EB61
:10B52000080080B2C72829D806F12004B542E4B249
:10B5300010D005F00700012505FA00F0C0B2FEF7B3
:10B5400005FC072C06D806F0070305FA03F0C0B285
:10B55000FEF7F2FB3846FFF791FD0120FFF7B6FF3B
:10B560003846FFF7F7FD072C0DD806F00706012037
:10B57000B040BDE8F041C0B2FEF7E8BB04F00704FC
:10B580000120A040F5E7BDE8F08100BFEE1B0020E0
:10B59000EC1200202DE9F7431C4E002101253368F1
:10B5A0008B4203D8284603B0BDE8F083184F3868B3
:10B5B00003684C1C5B6921469847D7F80080814698
:10B5C00040F2E737D8F8003001A99B694046984718
:10B5D000012809D049EA0000C0B201288CBF00252B
:10B5E00005F001052146DAE701980A49BC464FF00B
:10B5F000000EE0FB01CE4FF47A72002371466046E4
:10B60000FCF7AAFDFFF762FFDCE700BFEC0D0020AE
:10B6100038180020A08601002DE9F047FFF7BAFF97
:10B6200000285ED0FDF78CFA2F4F054600263C46D9
:10B6300039683046FDF7CAFAE8B10436B6F5806FCE
:10B6400007F10407F4D1DFF8A0C02849284E40F2E2
:10B6500001424FF0000E1220013A18D14FF48060E1
:10B66000FDF7B4FA38B1314640F20440FDF7AEFAC6
:10B670004600F6B200E00646012D01D1FDF78AFA38
:10B680004FF48163C4F800343046BDE8F0871CF8FD
:10B69000013B4B40A3FB00184FEA46194FEA431AFF
:10B6A00011EB0A0100FB068849EAD36948EB090857
:10B6B0004FEAC31AC9184FEAC61946EB08081F0219
:10B6C00011EB0A0149EA53694FEA062648EB0908DB
:10B6D00046EA1366C91948EB06063E4411EB0E0113
:10B6E000BAE70646D0E700BF0814002025232284CD
:10B6F000E49CF2CB044BD3F80034B3F5006F01D3D4
:10B70000FFF78ABF012070470814002010B5084CCD
:10B710000146D4F80004FDF759FA40B1D4F80034DA
:10B720000433C4F80034BDE81040FFF7E3BF10BD98
:10B73000081400208318B3F5806F2DE9F34D0446FB
:10B740000E46154645D8244F07443946304602F088
:10B750009DFF00283DD02A463146384602F088FF3A
:10B76000FDF7EEF94FF0000A80464FF0000B052D73
:10B770002F46C4F3024328BF052743EAC703CDE998
:10B7800000AB3A468DF800303146230A0DF1030034
:10B790008DF801308DF8024002F06AFF0098FFF743
:10B7A000B5FF01280DD1012D06D1ED1B3C443E44CF
:10B7B000DDD1FFF79FFF04E00198FFF7A7FF012805
:10B7C000F3D0B8F1010F04D102B0BDE8F04DFDF7A0
:10B7D000E1B902B0BDE8F08D0814002013B50A49A4
:10B7E0000422014404460DEB020002F041FF019BDC
:10B7F0003BB1042200230DEB020120460193FFF729
:10B8000099FF02B010BD00BF0814002013B5044614
:10B81000FEF7B0FA884207D08DF8071001220DF12B
:10B8200007012046FFF786FF02B010BD13B504469E
:10B83000FEF7A6FA884207D0ADF8061002220DF1F5
:10B8400006012046FFF776FF02B010BD094A08B591
:10B850005378C3F3800181420BD060F382035370AD
:10B8600004201188FFF7E2FFBDE808400220FCF742
:10B87000ABBE08BDFA1B002010B5FDF761F9044608
:10B88000FFF788FEFEF7D4FA012C03D1BDE8104083
:10B89000FDF780B910BD00002DE9F04F037985B0A8
:10B8A0000646002B00F08B840121FDF7EBF8777939
:10B8B0009F4BDFF8AC92054647B347F65E42904295
:10B8C0000ED047F65F42904205D047F65D42904267
:10B8D0001CD11A7822B100201870FFF775FC01E026
:10B8E00001221A7099F800305F0700F068847379BC
:10B8F000002B00F064848F4B5B785D0740F15F8420
:10B90000022005B0BDE8F04FFCF75EBE1B78002BAF
:10B9100000F0CB80884BDFF84CA21C78874B1B785B
:10B920001C43874BA5F1E0081B781FFA88F81C43DD
:10B93000B8F1070FE4B21FD805F0070201239340C6
:10B940005BB2A7B12343DCB2DFF81CB2DAF80030F7
:10B950005B451CD021465846FDF78AF9B8B1E42D65
:10B960006AD0784B1B88E42B11D1002766E09C43FA
:10B9700060D0E42D0BD0E7E7724B002F50D11A882E
:10B98000AA4204D11F80704B1F60704B1F80DAF8F1
:10B990000000002800F08980B8F1070F77D8214611
:10B9A000FDF766F910B90120FFF70EFC7079002849
:10B9B00000F0F783664B00221A70A5F5E04293B2BF
:10B9C000222B00F2DA830420FEF7DAF9594C013A0F
:10B9D0002080212A00F29380DFE812F0EE00590166
:10B9E000F600A100A500FA00C800FE000A01D4007C
:10B9F0005101D8000E01DC0012013801E0001601EF
:10BA00004001E6001C012401CC000201D000060127
:10BA1000EA0020012F014A014F019C00F200610160
:10BA20001D80FFF763F9484B1860484B00221A80CD
:10BA3000002C89D10024AAE7002F92D00020FFF724
:10BA4000C3FB444BCAF800B001221A70424B2222B9
:10BA50001A7017B9E420FFF77DFB404B0022B8F1C4
:10BA6000070F1A7009D847F21300FFF7C1FAFEF763
:10BA70001BF9D7B1FEF718F934E7FEF715F94FF4C3
:10BA80007A70FFF723FD1320FFF7F8FAF1E7038838
:10BA9000AB4206D137B92F4B1F700020FFF794FB44
:10BAA00003E017B1837A9B06F7D5A5F5F843183B59
:10BAB0007079062B3FF67BAFDFE803F00E12040A25
:10BAC000161A1E00E12226231146FFF70BFD09E797
:10BAD0002723E522E521F8E72623E122E021F4E708
:10BAE0002723E522E421F0E72623E122E221ECE707
:10BAF0002723E522E621E8E728230122EAE7237845
:10BB000043F00103237021880420FFF78FFEFFF725
:10BB1000AFFBE7E6637843F008036370F3E723784D
:10BB200043F00203EEE7237843F00403EAE700BFA3
:10BB3000580F0020FA1B0020F21B0020F01B0020F1
:10BB4000F11B0020EC1B0020E81B0020E41B002060
:10BB5000EE1B0020DF1B0020DE1B0020DD1B002071
:10BB6000F81B0020E01B0020CCE80008237843F0FD
:10BB70000803C7E7637843F00103CEE7637843F037
:10BB80000203CAE7237843F01003BBE7237843F0AE
:10BB90002003B7E7237843F04003B3E7FFF768FBE0
:10BBA000237843F08003ADE7237843F00C03A9E743
:10BBB000637843F00303B0E7237823F00103A1E7A0
:10BBC000637823F00803A8E7237823F0020399E7BA
:10BBD000237823F0040395E7237823F0080391E703
:10BBE000637823F0010398E7637823F0020394E776
:10BBF000237823F0100385E7237823F0200381E7DF
:10BC0000237823F040037DE7FFF732FB237823F00E
:10BC1000800377E7237823F00C0373E7637823F03E
:10BC200003037AE72378C3F3800282F00102D2B2E1
:10BC300062F3820362F3C30364E76378DA4302F0DA
:10BC4000010262F3000362F3410366E72378C3F362
:10BC5000801282F0010262F3861353E7FFF708FBBC
:10BC60002378C3F3C01282F0010262F3C71349E7DD
:10BC700001210E20FFF7CAFD45E70021F9E72378EF
:10BC8000C3F3001282F0010262F304133AE723784F
:10BC9000C3F3000282F0010262F3000332E763782B
:10BCA000C3F3C00282F0010262F3C30335E7A5F5D6
:10BCB000A543603B9BB21F2B0CD8E0B9012305F0D4
:10BCC0001F0503FA05F5E9B20320FFF79FFDA54B19
:10BCD0001D8007E6A0B347F65B439D4224D047F69C
:10BCE0005C439D4215D047F65A439D421AD047F611
:10BCF00001439D4221D047F603439D4216D0B5F53E
:10BD0000F84F1DD1FFF7B4FA974B984A1A60FDF728
:10BD1000ADF9974B587880F00400C0F38000FFF72E
:10BD200095FDDFE50120FAE70020F8E7FFF7A4FD25
:10BD30004FF6FF710020FFF779FDFFF799FAE6E76C
:10BD40003388ADF80830002854D00298FCF772FE12
:10BD5000044601460298FCF7B3FBBDF80830ADF885
:10BD60000C3003992046FCF791FCFCF791FD99F803
:10BD7000007096F80680757917F007070446C8F337
:10BD8000031825D02F461DB3C4F3072303F0F00298
:10BD9000402A0ED0C1B201F12002D2B2072A2ED918
:10BDA00003F0E003202B04D1012928D9B8F1000FBA
:10BDB00027D06F4B5F7817F0040709D00220FCF7FB
:10BDC00003FC99F8003013F0070F0CBF0127002780
:10BDD000C4F303330B2B6FD8DFE813F01500150005
:10BDE0004E004E00D400EB006E006E00F5005A01CC
:10BDF0006C016C010298FCF78DFB0446ADE700274F
:10BE0000E6E74746E4E7C4F30328C4F307224FEA12
:10BE100008130F2A88BF9846E4B2ADB1B8F1000FFD
:10BE20000CD004F12003DBB2072B00D954B9514ADE
:10BE3000137848EA03031370FDF736FF2046FFF737
:10BE40001DF939E04C4AF3E72046FFF783F9B8F1D2
:10BE5000000F31D004F12003DBB2072B00D91CB94D
:10BE60004046FCF70BFC04E0434A137823EA08033E
:10BE70001370FDF719FF1FE0C4F30320C4F3072379
:10BE800003F0F0030201E4B2202B18BF10463CB1CE
:10BE9000012C4DD0002D56D0B8F1000F26D0CDE7A3
:10BEA000334B5B785C071DD425B128B1314A137838
:10BEB0000343DDE70028D4D1002F00F0B78099F8C4
:10BEC000000010F0010340F0B1807371C008FCF76E
:10BED000E3FA3046FFF7E0FC99F80000C008FCF7F1
:10BEE000E5FAA3E085B1B8F1000F02D1FDF724FF18
:10BEF000E2E7B8F1010FDFD1204A137830EA0301FD
:10BF0000DAD003431370D7E7B8F1000FD4D1019012
:10BF1000FDF71CFF194A0198137818421CBF834390
:10BF20001370174A13781842C6D023EA0003E9E7D2
:10BF30001DB1B8F1050FBFD8D8E7B8F1040FBBD8D1
:10BF4000FDF704FFB8E7B8F1000FF9D0392C0CBFAA
:10BF50004FF4FA500120FFF7B9FA2046FFF7FAF83C
:10BF6000AAE700BFF41B0020FCFF0120EFBEADDEFE
:10BF7000FA1B0020F01B0020FC1B0020F11B0020FE
:10BF8000F21B002014F4406FC4F3812307D0012B6F
:10BF900092D165B1C4F30900FCF7E4FF8CE725B149
:10BFA000C4F30900FCF7C2FF86E72846FAE72846F3
:10BFB000F2E7E0B225B1FCF7D1FEFFF739F87BE7F5
:10BFC000FCF71EFFF9E714F4407F28D165BBC4F3EA
:10BFD0004212E0064FEA8202D2B244BF0F259540DA
:10BFE00004F00F03C4F3812448BFED43022C03FA8D
:10BFF00002F3744A0DD0032C0FD0012C04D0118809
:10C000002B430B4013800FE011880B431D43158019
:10C010000AE02B4311884B40F4E72B43F2E7C4F3CB
:10C02000012255B1D1070AD4FCF776FF0021304632
:10C0300005B0BDE8F04FFCF725BD012AF4D9C4F3E3
:10C04000421114F010024FEA8101C9B21CBF0F2245
:10C050008A4004F00F03C4F3812418BFD243022C9A
:10C0600003FA01F358490DD0032C0FD0012C04D052
:10C0700013430A8813400B80D6E7088803431A430A
:10C080000A80D1E713430A885340F4E71343F2E7E9
:10C09000E7B2C4F3032435B12046FCF7FDF9384676
:10C0A000FDF74AFEC0E73846FDF750FE2046FCF794
:10C0B000FDF9B9E7E7B2A7F1F003042B41D8DFE8B7
:10C0C00003F003251017210045B1B8F1040FABD8D8
:10C0D000C4F3042401233C4AA3409BE7B8F1050FB5
:10C0E000F5E7C4F30420002DE1D1FCF7D5F99BE777
:10C0F000354A002D8BD0C4F30424012303FA04F441
:10C10000148091E7314B5B785A0704D4C4F30420C0
:10C11000002DCCD0E9E74DB15B07C4F30420E4D592
:10C12000C30043F0030389F80030DEE70120FCF789
:10C130004BFAB8F1010F7FF677AF0220FCF744FA13
:10C1400072E74DB1B8F1000F03D03846FEF796FF05
:10C150006AE7C4F30420C8E7B8F1000F0AD0392F0A
:10C160000CBF4FF4FA500120FFF7B0F93846FEF744
:10C17000F1FF59E7C4F3042099E747F616439D42BF
:10C180007FF495AD124B1B7803F0AA03002B114BE3
:10C1900013BF01220022292035201A70FCF7FEFE71
:10C1A00068E447F616439D427FF481AD094B1B7846
:10C1B000002B0CBF29203520FCF726FF5AE405B0E0
:10C1C000BDE8F08FF41B0020F61B0020FA1B0020B6
:10C1D000F01B0020EF1B00201C49F8B58B790F2BBA
:10C1E0000AD84B7943B11A4B1A4A1B7815784E7806
:10C1F0000F78194CAB4200D1F8BD04EBC3000279B3
:10C2000002B34278B2421DD114F83320BA4219D198
:10C210004279BAB94288B1F802C0A2EB0C0292B2DC
:10C22000C72A0FD88B79012262F307138B718379A8
:10C2300062F3071383710548FFF72EFBBDE8F84052
:10C24000FCF7B2B9013303F00703D3E7401C002029
:10C25000FE1B0020FD1B0020001C00202DE9FF47D5
:10C26000824C054606220146684602F001FA94F81F
:10C2700004906F792A79B9F1000F12D17AB1002FA9
:10C2800000F0F0802846FCF729FC002800F0EA8046
:10C2900008222946754802F0EBF9FFF79DFF0124BB
:10C2A00042E0B5F802A06388667995F80080AAEBB1
:10C2B00003039BB2002E00F0A680C72B67D8002A8C
:10C2C000EDD0A379627869780F2B50D891420FD1C5
:10C2D000227842450CD1002F44D1012262F307138A
:10C2E0002046A371FFF7D8FAA379AB7100241BE0B5
:10C2F000002F37D13A464046FCF734F94046FCF768
:10C3000031F904460028F1D10098FCF7D5FBC0F3C1
:10C310000332032AC3B20BD8012A13D910F4706F69
:10C3200015D0AA790F2A12D8204604B0BDE8F087AC
:10C33000063202F00F02012A0ED92846FFF7ACFAA6
:10C340003446F1E710F4706F01D0002BECD02033AD
:10C35000DBB2072BE8D9F0E7EF2BE5D90F33DBB2DF
:10C36000022BF7E7A37943F00103A371BEE79142E3
:10C370002ED1227842452BD157BB2846AB71FFF70F
:10C380008BFA08222946204602F072F987E7A37942
:10C390000F2B08D82046FFF77FFA082200212046FD
:10C3A00002F05EF9A2E7002A3FF479AF61786A787B
:10C3B00091420DD1227842450AD14FB92846AB713E
:10C3C000FFF76AFA08223946204602F049F966E783
:10C3D0002846FCF783FB002844D0002F42D0A379E5
:10C3E0001F2B7FF655AF2288ADF8082002A8002247
:10C3F000ADF80AA08DF80C908DF80D208DF80E3058
:10C40000FFF74AFA44E7C72BC7D8002A3FF447AFE3
:10C4100047B362786B789A421AD12378434517D193
:10C42000A379DA0710D40F2B0ED9AB7103F0F00308
:10C43000F02B06D0AB79C3F30312013262F307137A
:10C44000AB712846FFF728FA0848082229469BE7DF
:10C450002846FCF743FB00287FF41AAFA37943F08A
:10C460000103A3712846FFF717FA18E7401C0020C4
:10C47000F0B589B0CDE900019DF8055000220DB15D
:10C480002C490A70DDE900019DF80460ADF80E202A
:10C4900002905EB1012102A88DF80C608DF80D505C
:10C4A000FCF7F0FA012102A8FCF7ECFA8DF80C6019
:10C4B0008DF80D50DDE90201CDE9040104A8FFF774
:10C4C000CDFE1D4E1D4C0746B8B9DDE90401CDE98E
:10C4D00006019DF814103378227871B15D1C05F0C7
:10C4E0000705954210D01648082206A900EBC300A4
:10C4F00002F0BEF83570FCF757F8114D207833780C
:10C5000083420BD109B0F0BDFEF7B2FE08223946D6
:10C510000C483770277002F0A3F8EEE705EBC00077
:10C52000FFF79CFE0028EDD02378013303F00703CA
:10C530002370E3E7FC1B0020FD1B0020FE1B0020F6
:10C54000001C0020401C002073B5FEF7CFFB0A4DF5
:10C550002B8884B2A3420DD00026ADF80060FEF710
:10C56000C5FBADF80460ADF80200DDE90001FFF79E
:10C570007FFF2C8002B070BD761B0020EFF3098393
:10C5800005494A6B22F001024A63683383F3098844
:10C59000002383F31188704700EF00E02DE9F0419C
:10C5A000302304460E4683F3118890F80080456BD3
:10C5B0004160B8F1010F40D140F25643836240F22E
:10C5C00016434362514B984237D1514F51493B6A10
:10C5D00043F400133B623B6A23F400133B620020E8
:10C5E0003B6AFDF749F94C49E0620620FDF744F942
:10C5F0003B6C206343F400133B643B6E43F4001335
:10C600003B663B6E454B50224FF0004183F81F23A1
:10C61000C3F88011196083F82023C3F88481C3F81C
:10C620000480636A43F0007343F440336362A36A97
:10C6300043F0007343F44033A362E36A1A6805F1E0
:10C6400010039360226B126893604FF400432B60D9
:10C650004FF4106200232B606A6069687268307A58
:10C6600021F03F010904090C6960696841F02A0161
:10C6700069602B498A4220DC52002A4B93FBF2F37B
:10C680002B22C3F30B032A62EB6132782B68022A58
:10C690009BB231D0032A35D023F00A01012A08BF0A
:10C6A0000B462B602B6843F001032B6002232370A1
:10C6B000002080F31188BDE8F0811B498A42E3DC49
:10C6C00002280CD102EB4201164AB2FBF1F21343ED
:10C6D0006FEA43436FEA53439BB20D22D3E703282B
:10C6E00005BF1923534340F6FF720E4A04BFB2FB45
:10C6F000F3F24FF48043EAE723F0080343F0020328
:10C700009BB2CEE743F00A03CBE700BF4C1C0020EE
:10C7100000380240C9A000089995000800E100E037
:10C72000A086010080DE8002801A060010B530234A
:10C73000044683F311880378012B27D0FDF7F0F826
:10C74000006BFDF75BF8E06AFDF758F8134B002229
:10C750009C422263E26219D1114B4FF00041C3F8B1
:10C760008010C3F88011012183F81F23C3F88410BF
:10C77000C3F8841183F820230A4B1A6C22F40012A8
:10C780001A641A6E22F400121A661B6E002301222C
:10C790006360227083F3118810BD00BF4C1C002021
:10C7A00000E100E000380240F8B5089F04464FF071
:10C7B000300C8CF31188002585604900032020701F
:10C7C0002184606B85F31188216B0E68A16A31604A
:10C7D000F2607360E36A626A1B681A60069ADA6044
:10C7E000079A5A604FF0804241F28736516A8CF3C3
:10C7F000118883699B0702D403689B052AD5536A75
:10C800005B1AB34223D9236B1A68116821F01F0108
:10C8100011601168CF07FCD4597A5A683D238B40C8
:10C820001360E36A1A68116821F01F011160116832
:10C83000CE07FCD4597A5A683D238B4013604FF0E1
:10C84000FF3005232370002383F31188F8BD85F39F
:10C850001188CCE7436843F400734360036843F4F2
:10C8600080730360002F2BD0184BDA6823463946BB
:10C8700043F81C2F03209361FEF710F818B3236BC5
:10C880001A68116821F01F0111601168CD07FCD4EE
:10C89000597A5A683D238B401360E36A1A6811681D
:10C8A00021F01F0111601168C907FCD4597A5A6838
:10C8B0003D238B401360421C0CBF05230223C1E7BC
:10C8C0004FF0FF30DBE70223BCE700BFA8130020D6
:10C8D0002DE9F0414FF080473B69FA681340DAB226
:10C8E000D2439B073A6139D5302383F311882D4D0C
:10C8F0002C69786AEE69A168DFF8AC80821B8A42F5
:10C9000046D3236862680E44EE6113605A600023C8
:10C9100023602A69424508BFFB6083F31188E368FE
:10C92000216920469847302383F311886269002AE1
:10C93000DED0796A881B82423EBFEB6A43F0020375
:10C94000EB622B692ABF521A00229219434509D182
:10C950002046FDF7F5FA002383F31188BDE8F04186
:10C96000FEF74CB8801800D2024699688A420CD86B
:10C970005968A260236061600C6099685C60891AE4
:10C9800099604FF0FF33AB61B2E71B68521AECE7D6
:10C990004445E0D0091A3144E861A160FDF7B4FADA
:10C9A000D9E700BFA8130020B813002008B5074B33
:10C9B000074A196801F03D01996053680BB190680E
:10C9C0009847BDE80840FEF719B800BF0060024074
:10C9D0001813002008B5084B196801F474629A60B6
:10C9E000064AD36823B18909106901F03D019847CF
:10C9F000BDE80840FEF702B80060024018130020AE
:10CA000008B5084B196801F474129A60064A536914
:10CA100023B1090C906901F03D019847BDE8084039
:10CA2000FDF7ECBF006002401813002008B5084B6A
:10CA3000196801F074629A60064AD36923B1890DBE
:10CA4000106A01F03D019847BDE80840FDF7D6BFE8
:10CA5000006002401813002008B5074B074A5968C8
:10CA600001F03D01D960536A0BB1906A9847BDE867
:10CA70000840FDF7C3BF00BF00600240181300204C
:10CA800008B5084B596801F47462DA60064AD36A43
:10CA900023B18909106B01F03D019847BDE80840BA
:10CAA000FDF7ACBF006002401813002008B5084B2A
:10CAB000596801F47412DA60064A536B23B1090C09
:10CAC000906B01F03D019847BDE80840FDF796BF27
:10CAD000006002401813002008B5084B596801F0A7
:10CAE0007462DA60064AD36B23B1890D106C01F0D1
:10CAF0003D019847BDE80840FDF780BF0060024057
:10CB00001813002008B5074B074A196801F03D01CA
:10CB10009960536C0BB1906C9847BDE80840FDF7E5
:10CB20006DBF00BF006402401813002008B5084B19
:10CB3000196801F474629A60064AD36C23B18909BA
:10CB4000106D01F03D019847BDE80840FDF756BF64
:10CB5000006402401813002008B5084B196801F45E
:10CB600074129A60064A536D23B1090C906D01F05E
:10CB70003D019847BDE80840FDF740BF0064024012
:10CB80001813002008B5084B196801F074629A6008
:10CB9000064AD36D23B1890D106E01F03D0198470F
:10CBA000BDE80840FDF72ABF0064024018130020CA
:10CBB00008B5074B074A596801F03D01D960536E2B
:10CBC0000BB1906E9847BDE80840FDF717BF00BF56
:10CBD000006402401813002008B5084B596801F49E
:10CBE0007462DA60064AD36E23B18909106F01F0CE
:10CBF0003D019847BDE80840FDF700BF00640240D2
:10CC00001813002008B5084B596801F47412DA6053
:10CC1000064A536F23B1090C906F01F03D0198470C
:10CC2000BDE80840FDF7EABE00640240181300208A
:10CC300008B5094B596801F07462DA60074AD36F8E
:10CC40002BB1890DD2F8800001F03D019847BDE875
:10CC50000840FDF7D3BE00BF006402401813002057
:10CC60002DE9F74FC2F3C31302F00309C2F38008A2
:10CC7000C2F3C10EC2F3411C01934E4600224FF095
:10CC8000030A4FF00F0BCB0731D5019C02F00703CD
:10CC90009B0004FA03F701254468954024EA050443
:10CCA00044EA08044460856854000AFA04F425EA5A
:10CCB000040545EA0E058560C56825EA040545EAD0
:10CCC0000C05B9F1020FC5600BFA03F31AD1072A5C
:10CCD00095BF056A456A9D439D4395BF3D433D43CE
:10CCE00005624562036823EA04033343036049088D
:10CCF00019D04FEA48084FEA8E0E4FEA8C0CB60066
:10CD00000132C0E7056825EA04053543072A0560B6
:10CD100095BF046A446A9C439C4395BF3C433C4393
:10CD200004624462E3E703B0BDE8F08F08B5302346
:10CD300083F31188012100F00F039940202220F095
:10CD40000F00FFF78DFF002383F3118808BD00005B
:10CD50002DE9F04385B00026DFF858810196029650
:10CD6000039601AF062558F8041B481C64D03023F5
:10CD700083F311884FF0010921F00F0001F00F013A
:10CD800009FA01F44A462146FFF76AFF448386F315
:10CD9000118800BF00BF00BF00BF00BF00BF00BFC1
:10CDA00000BF00BF00BF00BF00BF00BF00BF00BF8B
:10CDB00000BF00BF00BF00BF00BF00BF00BF00BF7B
:10CDC00000BF00BF00BF00BF00BF00BF00BF00BF6B
:10CDD00000BF00BF00BF00BF00BF00BF00BF00BF5B
:10CDE00000BF00BF00BF0024DFF8CCC023465CF8C2
:10CDF000041B4A1C3BD021F00F0201F00F01106907
:10CE000020FA01F111F0010F0CBF4A460022013354
:10CE1000DBB24FEA49090F2B44EA02041FFA89F9F1
:10CE2000E5D158F8040C431C01D0FFF77FFF41F215
:10CE3000B030FCF785FB3C80013D15F0FF0507F1A4
:10CE4000020790D11748184C0C2201A901F01EFCD2
:10CE500078B10C2201A9134801F00AFC01232370C8
:10CE6000FDF744FF114B186005B0BDE8F0830022C8
:10CE7000CDE72378002BF7D00C4B1D68FDF736FF6C
:10CE8000401B0428F0D9074909480C2201F0FEFB99
:10CE900020B1044906480C2201F0EAFB002323706C
:10CEA000E2E700BF6A1B00205C1B0020581B00202B
:10CEB0005E1B00205CF1000874F10008A64BA74C33
:10CEC0001A692DE980486FEAC2526FEAD25289B0DE
:10CED0001A611A69C2F308021A614FF0FF301A6929
:10CEE0005A69586100215A6959615A691A6A62F08F
:10CEF00080521A621A6A02F080521A621A6A5A6AD8
:10CF000058625A6A59625A6A1A6C42F080521A641C
:10CF10001A6E42F080521A661A6E914A106840F4F6
:10CF200080701060186F00F44070B0F5007F1EBF75
:10CF30004FF480301867196753688A4923F40073E7
:10CF40005360002341F8043B0C251A4605FB03F00F
:10CF50002058026041F833200133102BF6D182496A
:10CF6000824E4FF0FF338B60CB60C1F80834C1F8BC
:10CF70000C347F4B702183F81C134FF08051C3F8A1
:10CF8000801119607B4B33600123337106F10C0370
:10CF9000F3603361784BF361784BB26072615A8C05
:10CFA000B2F5C06F4FEA822300F0D180B3F5801F45
:10CFB00000F0CF80B3F5002F01D1714B3362714B7C
:10CFC000714C724903F10C020025DA601A610127E5
:10CFD0006F4A1F705D605D61DD615A63DD621D63D4
:10CFE0004FF0A04363656B4BA3655B4B27701A6CD6
:10CFF000E5613A43A5622562E56265622563656085
:10D00000A5601A641A6E3A431A66634A1B6E9368E7
:10D010003B4393604FF0804240F2473393625F4B53
:10D020004FF0FF3CC2F82CC095615563D560556048
:10D030005761176019605A4959605A4B5A499D62A5
:10D0400019634FF0300888F3118862B65749C868F1
:10D050004FF6FF0E00EA0E0E55484EEA0000C8607B
:10D06000D1F8FC00DFF878E140F08070C1F8FC00F6
:10D07000DEF800003843CEF800002020C87781F8A1
:10D080002280C3E906C59D60DD62526A5B6403F1DC
:10D090001001C3E9041110462946C3E908018022A2
:10D0A0004448DA639A6503F13402DA6000F5AA7243
:10D0B000C0F8C421404AC0F89421404AC0F8B421C5
:10D0C0000222C0F89851C0F8C071A0F8CC21C3E981
:10D0D0000033C3E91455DD65A3F84870C0F8C831C2
:10D0E000C0E97657C0F8D45100F5DC70FCF752FF68
:10D0F00085F31188324BDFF8EC90DF70314B324A08
:10D100001A60FCF795FEC9F8006088F31188F2698F
:10D11000B5601369377143F00043136185F31188DB
:10D12000D9F8000003685B689847284B284AB3F891
:10D13000227AB3F8243A866847EA0347037803F073
:10D1400001031370002E4FD12248FCF7F3F9224B54
:10D1500034E7224B32E700BF0038024018F00008E5
:10D1600000700040181300200060024014180020D6
:10D1700000E100E0D8F00008003C0240007AFF1F08
:10D1800078E800084C1C0020701A0020881C002041
:10D190000054004000F10008002004E09C1300202F
:10D1A00000000220A81300200CF1000800ED00E0B0
:10D1B0000003FA05800F00203B8B00083D8100082A
:10D1C000540F0020E40D0020338B00080070FF1F77
:10D1D00010180020B8E60008B0E8000894E800083D
:10D1E000001000E038180020A846013EB54212D2D7
:10D1F0000135D9F800002946FCF723FA8044B8F538
:10D20000006FF3D30B4BD9F800001D600121FCF730
:10D210000BFA094B1860074B1A684FF6FF739A42D6
:10D2200006D0054A054B126803EA87239A4209D3C0
:10D2300003488AE7EC0D0020E80D002000FCFF0306
:10D2400016E70008BB4E002571192846FBF7DCFCE9
:10D25000002800F018860435B5F5806FF4D1DFF8AA
:10D26000D4C2B54DB54F40F2014300221221013B1B
:10D2700040F0F68106A94FF48060FBF7C5FC20B1B1
:10D2800007A940F20440FBF7BFFCDDE90623BB42DF
:10D2900008BFAA4201D0FCF7CBFD4FF4816505A978
:10D2A0002846FBF7B1FC002800F02E82059B002BDE
:10D2B00000F0298213F0C00F05F104080693D9B2DB
:10D2C00000F0FA81C6F80084FEF7A6F908B9FCF769
:10D2D000AFFD10229A48DFF8B0A2002101F0C0F99A
:10D2E000984B00221A70984B1A70984B4FF0010E11
:10D2F0004FF0A80C1546302603F15C01D96493F871
:10D30000841011B103F170011965904FD3F89400A6
:10D31000D3F89810D3F890801B600CFB027904308E
:10D320005B6083F808E0C9F80C8000FB08195961BC
:10D330001961C3F81890D861C3F8208059629D62C2
:10D34000DD62C3F830A05B6386F31188D3F88810E0
:10D3500093F88C0001EB80018B6183F8A05085F37A
:10D360001188511C022903F1A8034FF00102C3D117
:10D37000626D936B23F40023936386F31188237803
:10D38000012B19D07248666DFCF7EFFA714BC6F8A5
:10D390001C580822B560B563C3F88820C3F88821FB
:10D3A00083F843536C4B5A6B22F080025A635A6DD8
:10D3B00022F080025A655B6D684F0025012365608D
:10D3C00023702E4657F8048FB8F1000F0FD0D8F80D
:10D3D000140020B16FF001010C30FCF76BFED8F89F
:10D3E000180020B16FF001010C30FCF763FE01352D
:10D3F000042D3E60E6D1FDF76DFC86F3118841F205
:10D400008830FEF763F8302383F31188544B636050
:10D410002378E660012B26616661A6614CD14E4BF4
:10D42000656D5A6B42F080025A635A6D42F0800279
:10D430005A655A6D5A6942F080025A615A6922F05F
:10D4400080025A615B69434BE02283F84323082240
:10D45000C3F888219A60434BEB60434BC5F8003812
:10D46000C023C5F8006E2B604FF40413AB632B6927
:10D47000002BFCDA01232B610C20FCF761F82B69EF
:10D48000DA07FCD41220FCF75BF82B69002BFCDADE
:10D4900000262F48AE60FCF768FA344BC5F81068D8
:10D4A000C5F81468C5F81C68AB614FF0FF336B61B9
:10D4B000AB6843F00103AB6002232370002585F3C2
:10D4C0001188626D936B43F40023936341F28830BB
:10D4D000FDF7FCFF302383F311884FF080435A6A35
:10D4E000234B1A60234B1D60234B1D6085F311886D
:10D4F00008222946214801F0B3F8214B2148012692
:10D5000020224FF480711E70FFF7AAFB20224FF4F7
:10D510008061FFF7A5FB44F2A010FCF711F8294643
:10D520002846FBF799FB314602462846FBF794FB59
:10D530002CE000BF0814002025232284E49CF2CBB9
:10D540005A1A00206B1A00206A1A0020040E0020CC
:10D55000701A002000E100E000380240781A002034
:10D5600018F100084014004003002002003C30C0C5
:10D5700044180020401800203C180020F71A002012
:10D58000F61A0020000002404F9B0008B14BB24E3B
:10D5900042EA40021A7056F8040B431C01D0FFF710
:10D5A000C5FB0135EDB2062DF5D1AC4E002556F880
:10D5B000040B471C01D0FFF7B9FB0135EDB20F2D6D
:10D5C000F5D10C220021A648A64E01F049F8A64844
:10D5D0000C22002101F044F80020FCF7D1FB4FF6AB
:10D5E000E367B84219D0FEF747F939460020FEF745
:10D5F0001DF900210220FEF709F9012103203180E5
:10D60000FEF704F94FF4A0510420FEF70FF9284665
:10D61000FEF7E4F81320FEF7E1F80220FCF7AAFB7E
:10D62000924B18700420FCF7ABFB914B1880FFF76E
:10D630008FFB40F6B830FDF749FFFFF789FB884BB9
:10D640001B7813F0010269D0FEF716F94FF6FF714F
:10D650000020FEF7EBF8874B874A1A60FBF706FDC0
:10D660001CF801EB8EEA050EAEFB01584FEA471994
:10D670004FEA4E1A15EB0A0501FB078849EADE69F5
:10D6800048EB09084FEACE1A15EB0E054FEAC71909
:10D6900047EB08084FEA0E2015EB0A0549EA5E69D8
:10D6A0004FEA072748EB090847EA1E672D1848EBA1
:10D6B000070707445519DAE51BBA0F0423F07F4327
:10D6C00023F0FF0307F4E02747EA332707EBD103F2
:10D6D000B3F5806F4FEAD1093FF6F4AD11F0300F8A
:10D6E0001AD007A94046FBF78FFA00283FF4EAADAD
:10D6F00008354A460DF11B01F01900F0B9FFB5F5E8
:10D70000006FFFF4CCAD0120C6F8005400283FF4B0
:10D71000DBADFDF7EFFFD9E54546EAE70320FCF76F
:10D7200029FB564D564B2A70802230801A7000F02B
:10D73000FBFE54480B21FCF7C6FB40B32B7898073F
:10D740004FF0050146D45048FCF7BDFBF8B14F48F7
:10D750000D21FCF7B8FBD0B1FDF7C8FA4C4B00F532
:10D760006A40603018604FF400724A48002100F0AF
:10D7700077FF494A494B10604FF6FF721A80484ABA
:10D7800001231370474A1370474B00221A70474B0E
:10D79000474A1A60474F484E3878337800229842FB
:10D7A00000F0A080454AD15C013303F00F03012251
:10D7B0000529F4D801A555F821F000BF49D8000883
:10D7C0009FD7000833D8000845D80008D9D70008EB
:10D7D000E7D700083A48B7E733703A4B1A703A4B2C
:10D7E0000322DA70D8E7344A1370364B00251D70D7
:10D7F000364B1D70364B1D70FCF72AFB062229465E
:10D80000344800F02DFF344B1D70344B1D70344BE9
:10D8100028461D70FBF78AFB2846FBF7A3FBFBF7A6
:10D820007BFB94F84F30AB420CBF01220222264B07
:10D83000D7E7337094F84F30002B234B08BF0121FA
:10D84000D970A9E73370F2E733701F4BDA709A7022
:10D85000A2E700BFF51A00205CF1000874F100088F
:10D860005E1B0020F41B00206A1B0020DC1A002035
:10D87000FA1B0020FCFF0120EFBEADDE591A00208C
:10D88000581A00203FF100083AF1000828F100087A
:10D89000541A0020501800204C180020481800206E
:10D8A000521A0020511A0020501A0020981B002004
:10D8B000F00D00206B1A00206A1A00205A1A00206E
:10D8C00035F100086C1A0020540F0020F01B0020D6
:10D8D000FC1B0020D71B0020D61B0020D51B0020DE
:10D8E000D41B002002B130702378052B03D1B54D35
:10D8F0002B78052B66D0FFF72BFADFF8F082B24BBE
